S00C00004353656D2E73726563B0
S11300000C9434000C943E000C943E000C943E007E
S11300100C943E000C943E000C943E000C943E0064
S11300200C943E000C943E000C943E000C943E0054
S11300300C943E000C943E000C943E000C943E0044
S11300400C943E000C943E000C943E000C943E0034
S11300500C943E000C943E000C943E000C943E0024
S11300600C943E000C943E0011241FBECFEFD8E048
S1130070DEBFCDBF0E9440000C9489010C940000A7
S11300808FEF84B987B98AB921E225B999E098B983
S11300903FE342E45FE0315040405040E1F700C0AC
S11300A0000080E285B998B96FEF30E742E0615013
S11300B030404040E1F700C0000025B998B95FEF37
S11300C060E732E0515060403040E1F700C000008A
S11300D085B998B94FEF50E762E041505040604015
S11300E0E1F700C0000025B998B92FEF30E742E0EE
S11300F0215030404040E1F700C0000085B998B974
S11301005FEF60E782E0515060408040E1F700C05B
S1130110000082E285B998B92FEF30E742E0215020
S113012030404040E1F700C0000084E285B933E08C
S113013038B95FE362E42FE0515060402040E1F7BA
S113014000C0000085B921E028B94FEF50E762E014
S1130150415050406040E1F700C0000085B938B913
S11301604FEF50E762E0415050406040E1F700C07B
S1130170000085B928B94FEF50E762E04150504084
S11301806040E1F700C0000085B938B93FEF40E7AF
S113019052E0315040405040E1F700C0000085B9C2
S11301A028B96FEF20E732E0615020403040E1F79A
S11301B000C0000085B925E028B94FEF50E762E0A0
S11301C0415050406040E1F700C000003CE035B9C8
S11301D098B92FE342E45FE0215040405040E1F7FA
S11301E000C0000024E025B998B96FEF40E752E061
S11301F0615040405040E1F700C0000035B998B963
S11302006FEF40E752E0615040405040E1F700C0DA
S1130210000025B998B96FEF40E752E061504040C3
S11302205040E1F700C0000035B998B96FEF30E7EE
S113023042E0615030404040E1F700C0000025B981
S113024098B95FEF60E722E0515060402040E1F749
S113025000C0000024E125B998B93FEF40E752E01F
S1130260315040405040E1F700C0000085B998E1AA
S113027098B96FE322E43FE0615020403040E1F759
S113028000C0000085B998B94FEF50E762E04150D3
S113029050406040E1F700C0000085B928E028B96B
S11302A03FEF40E752E0315040405040E1F700C09A
S11302B0000085B998B96FEF30E742E061503040F3
S11302C04040E1F700C0000085B928B95FEF60E75E
S11302D032E0515060403040E1F700C0000085B981
S11302E098B94FEF50E762E0415050406040E1F769
S11302F000C0000085B928B99FEF20E732E0915093
S113030020403040E1F700C0000085B988E288B998
S1090310BBCEF894FFCF00
S9030000FC
